:10000000B01D002099B9000019B70000314C000064
:10001000A7B90000A7B90000A7B90000A7B9000060
:10002000000000000000000000000000A7B9000070
:10003000A7B90000000000007B4B00000DDD0000B0
:10004000F39D0000239D0000AF9E0000F99E00007C
:10005000C1A90000F39D0000239D0000AF9E000099
:10006000F99E0000000000000000000000000000F9
:100070000000000000000000000000000000000080
:100080000000000000000000000000000000000070
:100090000000000000000000000000000000000060
:1000A0000000000000000000000000000000000050
:1000B0000000000000000000000000000000000040
:1000C0000000000000000000000000000000000030
:1000D0000000000000000000000000000000000020
:1000E0000000000000000000000000000000000010
:1000F0000000000000000000000000000000000000
:1001000000000000000000000000000000000000EF
:1001100000000000000000000000000000000000DF
:1001200000000000000000000000000000000000CF
:1001300000000000000000000000000000000000BF
:1001400000000000000000000000000000000000AF
:10015000000000000000000000000000000000009F
:10016000000000000000000000000000000000008F
:10017000000000000000000000000000000000007F
:10018000000000000000000000000000000000006F
:10019000000000000000000000000000000000005F
:1001A000000000000000000000000000000000004F
:1001B000000000000000000000000000000000003F
:1001C000FFFFFFFFFFFFFFFFFFFFFFFFFFFFFFFF3F
:1001D000FFFFFFFFFFFFFFFFFFFFFFFFFFFFFFFF2F
:1001E000FFFFFFFFFFFFFFFFFFFFFFFFFFFFFFFF1F
:1001F000FFFFFFFFFFFFFFFFFFFFFFFFFFFFFFFF0F
:1002000010B5054C237833B9044B13B1044800E012
:1002100000BF0123237010BD18080020000000005B
:10022000145E010008B5034B1BB10349034800E00D
:1002300000BF08BD000000001C080020145E010083
:1002400080B582B000AF00237B602C4B01221A7076
:100250002B4808F0CFFB03461A462A4B1A602A485F
:1002600008F0C8FB03461A46284B1A60284808F0D5
:10027000C1FB03461A46274B1A60274808F0BAFB11
:1002800003461A46254B1A601E4B1B680021184670
:1002900008F070FB1D4B1B680021184608F06AFB34
:1002A0001C4B1B680021184608F064FB1B4B1B68A5
:1002B0000021184608F05EFB124B1B68002118460F
:1002C00008F078FB114B1B680021184608F072FB00
:1002D000104B1B680021184608F06CFB0F4B1B6885
:1002E0000021184608F066FB00F0A2FA786000F0E2
:1002F000C1FB7B6818460837BD4680BD0000002062
:100300009C27010034080020A427010038080020A1
:10031000AC2701003C080020B42701004008002061
:1003200080B584B000AF786039600023FB60134B68
:1003300000221A707B68022B0FD13B6804331B68C4
:1003400018460EF093FD0346DAB20D4B1A700C4BB3
:100350001B7819460B4802F02BFA0B4B1B68002147
:10036000184608F03FFC094B1B680021184608F0AE
:1003700039FCFB6818461037BD4680BD00000020E0
:1003800060000020BC270100480800204C08002025
:1003900080B582B000AF00237B600A4B01221A7047
:1003A000094B1B680021184608F049FC074B1B68E5
:1003B0000021184608F043FC7B6818460837BD4604
:1003C00080BD00BF00000020480800204C0800202D
:1003D00080B586B000AF0023BB602A4B1B682A495A
:1003E000184600F003FB294B1B682949184600F00A
:1003F000FDFA284802F0DCF900237B611AE00023B3
:100400003B6110E00023FB6007E000237B607B681A
:1004100001337B60FB680133FB60FB68042BF4DD78
:100420003B6901333B613B69B3F57A7FEADB7B696A
:1004300001337B617B69B3F57A7FE0DB164802F01C
:10044000B7F9104B1B68154A92F82C20114642F25E
:10045000107201FB02F21146184600F0C7FA0B4B6E
:100460001B680E4A92F82D20114642F2107201FBD1
:1004700002F21146184600F0B9FABB681846183760
:10048000BD4680BD48080020305705004C080020BC
:1004900040420F00D0270100D827010000000020B3
:1004A00080B586B000AF0023BB60274B1B6827498F
:1004B000184600F09BFA264B1B682649184600F0A8
:1004C00095FA00237B611AE000233B6110E00023D2
:1004D000FB6007E000237B607B6801337B60FB6887
:1004E0000133FB60FB68042BF4DD3B6901333B61A6
:1004F0003B69B3F57A7FEADB7B6901337B617B691A
:10050000B3F57A7FE0DB104B1B68134A92F82C207E
:10051000114642F2107201FB02F21146184600F039
:1005200065FA0B4B1B680C4A92F82D20114642F2DB
:10053000107201FB02F21146184600F057FABB6830
:1005400018461837BD4680BD4808002040420F00BD
:100550004C080020305705000000002080B58AB00C
:1005600000AF0023FB6003F0D5F94B4B1B68002163
:10057000184608F01FFA494B1B680121184608F07D
:1005800019FA474B1B680121184608F013FA454B2E
:100590001B680021184608F00DFA434B1B684349BD
:1005A000184600F023FA424B1B684049184600F0F9
:1005B0001DFA3D4B1B680021184608F013FB3C4B0D
:1005C0001B680021184608F00DFB00237B621AE02F
:1005D00000233B6210E00023FB6107E000237B6007
:1005E0007B6801337B60FB690133FB61FB69042B92
:1005F000F4DD3B6A01333B623B6AB3F58A6FEADDA7
:100600007B6A01337B627B6AB3F57A7FE0DB224B46
:100610001B680121184608F0CDF9204B1B6800210A
:10062000184608F0C7F91E4B1B680121184608F050
:10063000C1F91C4B1B680021184608F0BBF91D4B83
:1006400000221A700023BB611BE000237B6110E0D5
:1006500000233B6107E00023BB60BB680133BB6044
:100660003B6901333B613B69032BF4DD7B6901335B
:100670007B617B6940F2CD429342E9DDBB69013386
:10068000BB61BB69B3F57A7FDFDB03F059F9FB6827
:1006900018462837BD4680BD3408002038080020A1
:1006A0003C080020400800204808002000350C00CD
:1006B0004C0800204408002080B500AF054802F037
:1006C00077F800F08BFCFFF7BBFD4FF4FA7003F0F6
:1006D00047FCFAE73828010080B588B000AF7860A1
:1006E000384B00221A60384B1B78002B62D1FFF781
:1006F0004FFE07F1080300221A605A609A60DA6020
:100700000023FB6138E0314B1B7831499A00FB69CB
:10071000134451F82330012B09D12C4B1B782C4961
:100720009A00FB691344022241F8232012E0274B70
:100730001B7827499A00FB69134451F82330022B98
:1007400008D1224B1B7822499A00FB6913440122ED
:1007500041F823201D4B1B781D499A00FB69134467
:1007600051F82320FB699B0007F120010B4443F85B
:10077000182CFB690133FB61FB69032BC3DD0023EC
:10078000BB6114E0BB69C3F10303104A1278114640
:100790009B0007F12002134453F8182C0C488900E1
:1007A000BB690B4440F82320BB690133BB61BB69C3
:1007B000032BE7DD044B01221A7000BF2037BD4632
:1007C00080BD00BF88080020440800206000002091
:1007D0006400002080B582B000AF114808F00AF92B
:1007E00003467B60786800230E4A002108F06CF80D
:1007F00038603B68002B02D00B4801F0D9FF7B68C2
:100800000121184608F08EF838603B68002B02D0B2
:10081000064801F0CDFF3B6818460837BD4680BD4D
:100820004C280100D9060000542801006C28010062
:1008300080B582B000AF1E4800F08BFD03461D4A14
:1008400013601D4800F085FD03461C4A1360194BD8
:100850001B68002B10D0174B1868194B1A68194BDE
:100860001B68002108F018FA78607B68002B03DA17
:100870007968154801F09CFF00237B600F4B1B68D3
:10088000002B10D00D4B1868104B1A68104B1B68CA
:10089000002108F001FA78607B68002B03DA7968A0
:1008A0000C4801F085FF7B6818460837BD4680BDBF
:1008B00084280100480800208C2801004C080020F2
:1008C0004400002048000020942801004C00002033
:1008D00050000020A028010080B584B000AF7860EF
:1008E00039600023FB600023BB607B68012B03D1D0
:1008F0000023BB60BB6863E07B68022B07D13248F2
:1009000001F056FF4FF0FF33BB60BB6858E03B6817
:1009100004331B682D4918460EF0A4FB0346002B38
:100920001FD13B6808331B6818460EF09FFA034638
:100930001A46274B1B6802FB03F3264AA2FB03233C
:100940005B09FB60244B1868214B1A68FB68002187
:1009500008F0A2F9204B1B681946204801F028FF37
:100960002DE03B6804331B681D4918460EF07AFBE6
:100970000346002B1FD13B6808331B6818460EF056
:1009800075FA03461A46174B1B6802FB03F3114A1C
:10099000A2FB03235B09FB60134B1868114B1A6819
:1009A000FB68002108F078F90F4B1B6819460B48CB
:1009B00001F0FEFE03E00023BB60BB6800E0BB6803
:1009C00018461037BD4680BDAC28010084280100C0
:1009D000440000201F85EB5148080020E428010056
:1009E0008C2801004C0000204C08002080B584B009
:1009F00000AF786039600023FB607B68002B04D176
:100A000051220849084802F013F83B68074A0021C0
:100A1000786808F041F9F860FB6818461037BD4661
:100A200080BD00BF34290100F028010040420F00C2
:100A300080B584B000AF78600023FB600023FB60CA
:100A40000A4B1B684FF0FF31184601F011FA084BB2
:100A50001B68FB60054B1B68184601F017FBF86824
:100A600000F0D6F81E2003F07BFAE5E784080020AA
:100A70007408002080B582B002AF4FF496730193E2
:100A8000092300934FF4006300220D490D4803F041
:100A900087F903460C4A13600B4B1B68002B06D0EA
:100AA000094B1B68184603F0D9F8002304E00748F7
:100AB00001F07EFE4FF0FF331846BD4680BD00BFFB
:100AC000310A000048290100600800205429010073
:100AD00080B483B000AF786039607B681B68134ACC
:100AE000934203DD7B68114A1A6007E07B681B684C
:100AF00013F57A7F02DA7B680D4A1A603B681B683F
:100B00000A4A934203DD3B68084A1A6007E03B68E3
:100B10001B6813F57A7F02DA3B68054A1A6000BF4A
:100B20000C37BD465DF8047B704700BF40420F00A4
:100B3000C0BDF0FF80B582B000AF786039607B68DF
:100B4000002B0FDA2C4B1B680121184607F032FFEF
:100B50002A4B1B680021184607F02CFF7B685B427C
:100B60007B600EE07B68002B0BDB244B1B680121B4
:100B7000184607F01FFF204B1B680021184607F09E
:100B800019FF3B68002B0FDA1D4B1B68012118462B
:100B900007F010FF1B4B1B680021184607F00AFFE7
:100BA0003B685B423B600EE03B68002B0BDB154B68
:100BB0001B680121184607F0FDFE114B1B68002140
:100BC000184607F0F7FE3A463B1D11461846FFF758
:100BD0007FFF0D4B1B687A6811461846FFF706FF2A
:100BE0000A4B1B683A6811461846FFF7FFFE00BF24
:100BF0000837BD4680BD00BF3808002034080020FB
:100C0000400800203C080020480800204C08002034
:100C100080B582B000AF7860474B93ED007A7B6877
:100C200007EE903AF8EE677A77EE677A434BC3EDBA
:100C3000007A434B93ED007A404BD3ED007A77EE88
:100C4000277A3F4BC3ED007A3C4B93ED007A3D4B46
:100C5000D3ED007A77EE677A3B4BC3ED007A374BE2
:100C60001B68384A1360364BD3ED007A9FED377A14
:100C7000F4EEC77AF1EE10FA03DD314B344A1A6014
:100C80000CE02F4BD3ED007A9FED327AF4EEC77A69
:100C9000F1EE10FA02D52A4B2F4A1A602F4B93ED32
:100CA000007A264BD3ED007A67EE277ADFED2C6AC7
:100CB00087EEA67A2B4BD3ED006A214BD3ED007A59
:100CC00066EEA77A37EE277A274BD3ED006A1E4BE4
:100CD000D3ED007A66EEA76AB2EE046AC6EE867AB3
:100CE00077EE277A214BC3ED007A204BD3ED007AC3
:100CF0009FED1F7A77EE677AFDEEE77A17EE902A7E
:100D00001C4B1A60194BD3ED007A9FED197A77EEE0
:100D1000877AFDEEE77A17EE902A174B1A60154B8B
:100D20001B68154A126811461846FFF703FF00BFFB
:100D30000837BD4680BD00BF540000206408002075
:100D4000680800206C0800207008002000803B45E7
:100D500000803B4500803BC500803BC5580000201B
:100D60000000C842580800205C0000205C080020F9
:100D70000050434950080020540800202DE9B0439A
:100D800086B004AF786039607B68032B03DC2A48A7
:100D900001F00EFD4AE03B6804331B6818460EF074
:100DA00061F853EC102B1046194611F0C1F90346B7
:100DB000224A13603B6808331B6818460EF052F84D
:100DC00053EC102B1046194611F0B2F903461C4A99
:100DD00013603B680C331B6818460EF043F853EC65
:100DE000102B1046194611F0A3F90346154A13605B
:100DF000124B1B68184610F061FE80468946104B66
:100E00001B68184610F05AFE04460D460D4B1B6831
:100E1000184610F053FE02460B46CDE90223CDE9F9
:100E2000004542464B46084801F0C2FC00231846E4
:100E30000837BD46BDE8B083702901005800002086
:100E4000580800205C0000209029010080B584B083
:100E500000AF786039600023FB60084B1B681846C0
:100E600000F032FFF860FB68002B02D0044801F06C
:100E70009FFCFB6818461037BD4680BD7C080020EB
:100E8000C829010080B584B000AF78600023FB73EF
:100E900006E0474B1B684FF0FF31184600F04CFE50
:100EA000444B186807F10F0201234FF0FF3100F0A7
:100EB0002FFB0346012BECD1FB7B5B2B03D13E4B7D
:100EC00000221A7071E0FB7B5D2B17D13A4B1B7827
:100ED000002B6AD1394B1B684FF0FF31184600F0E8
:100EE000C7FF374B1B68374A1360354B00221A6027
:100EF000324B1B68184601F0C9F856E0FB7B632BA8
:100F000041D12D4B01221A702F4801F051FC2F4B7B
:100F10001B781A462E4B1B682E499200134451F839
:100F2000233019462C4801F043FC284B1B781A4605
:100F3000274B1B6827499200134451F82330022B9A
:100F40000CD0022B12DC002B0FD0012B0ED102F0A3
:100F5000E1FCFFF73DFA02F0F3FC07E002F0DAFCF7
:100F6000FFF79EFA02F0ECFC00E000BF184B1B6894
:100F70000133174A1360164B1B68032B15DD144B06
:100F800000221A6011E0FB7B2F2B0ED9FB7B392B43
:100F90000BD80B4B1A6813469B0013445B001A4690
:100FA000FB7B1344303B064A13600023FB7377E757
:100FB0007C080020780800208C080020840800208D
:100FC0009008002074080020DC2901006000002047
:100FD0008808002064000020E829010080B582B064
:100FE00002AF254800F0B5F90346244A1360234BAD
:100FF0001B684FF48071184600F0B8F91F4B1B684E
:101000001F49184600F040FB1C4B18680D231D4A71
:10101000002100F0C1FA002200211B4800F036FD3B
:1010200003461A4A13600021194800F0DDFE03460A
:10103000184A13604FF496730193052300934FF4FD
:10104000806300221449154802F0AAFE0346144AA0
:101050001360134B1B68002B06D0114B1B681846FE
:1010600002F0FCFD002304E00E4801F0A1FB4FF06C
:10107000FF331846BD4680BDF029010078080020E6
:101080004D0E0000F8290100082A01007C0800200C
:10109000182A010084080020850E0000282A01007B
:1010A00080080020342A010080B400AF034B1B6885
:1010B0001846BD465DF8047B704700BF94080020C9
:1010C00080B582B000AF1B4B1B68002B02D0194BC0
:1010D0001B68984703F03AFD7860174B1B68013393
:1010E000154A136002F0AEFD38603B689B6C5A1ED7
:1010F0003B689A643B689B6C002B12D13B685A6C2E
:101100003B689A643B6893F8343043F00803DAB2E2
:101110003B6883F83420786803F01CFD02F09EFAE7
:1011200002E0786803F016FD03F082FB00BF083789
:10113000BD4680BD980800209408002080B485B08A
:1011400000AF78607B68002B03DA4FF0FF33FB6061
:1011500027E07B68164A82FB03129211DB17D31A31
:101160004FF47A7202FB03F3FB607A68104B83FB47
:1011700002139911D317CB1A4FF47A7101FB03F3C1
:10118000D31A4FF47A7202FB03F303F2E733084AEF
:1011900082FB03129211DB17D31A1A46FB68134421
:1011A000FB60FB6818461437BD465DF8047B70474A
:1011B000D34D621080B400AF00231846BD465DF8E1
:1011C000047B704780B400AF00231846BD465DF82D
:1011D000047B704780B400AF00231846BD465DF81D
:1011E000047B704780B400AF00231846BD465DF80D
:1011F000047B704780B582B000AF094B7B6005E08F
:101200007B681B6898477B6804337B607B68054A72
:101210009342F5D300BF00BF0837BD4680BD00BF75
:101220007C2701008827010080B582B000AF094B00
:101230007B6005E07B681B6898477B6804337B60B4
:101240007B68054A9342F5D300BF00BF0837BD460F
:1012500080BD00BF882701009827010080B500AF3E
:1012600000F036F80023184680BD80B582B000AF8C
:101270007860FFF7D9FF08F050FA00BF0837BD4685
:1012800080BDFFFF80B584B002AF142301930A2311
:1012900000934FF40063002209490A4802F080FDE0
:1012A00078607B68002B04D1D5220749074801F0FC
:1012B000BFFB786802F0D2FC00BF0837BD4680BD96
:1012C0006B120000582A0100702A0100602A0100F8
:1012D00080B500AF03F03AFC0CF022FD01F0B6F946
:1012E00003F0E6FB02F082F9FFF7CCFF03F0FAFB14
:1012F00000F0A0FA02F096F90023184680BD80B5F0
:1013000084B000AFF860B9601346FB80FB68002B27
:1013100002D14FF0FF3318E0B86800F01AF8034626
:10132000002B02D04FF0FF330FE0FB68BA680921B1
:10133000184601F0CDFEFB68FA88DA82FB680022CD
:101340009A76FB6800221A83002318461037BD46A0
:1013500080BD80B582B000AF78600921786802F066
:101360002DF8034618460837BD4680BD80B584B0C9
:1013700000AF78600B467B800023FB607B68002B0E
:1013800004D1D0223749384801F052FB7B68184617
:1013900001F0FAFF0346092B04D0D122314933482A
:1013A00001F046FB7B68DB8A03F01003002B14D1AD
:1013B0007B685B6A002B09D07B685B6A786898471A
:1013C000F860FB68002B01D0FB6847E07B68DB8A94
:1013D00043F010039AB27B68DA827B68DB8A03F001
:1013E0000803002B08D07B681B8B03F00803002B3D
:1013F00002D06FF0060331E07B689B6A002B07D0B8
:101400007B689B6A7A88114678689847F86007E09D
:101410007B8823F0F0031B051B0D9AB27B681A83AF
:10142000FB68002B03D0FB6813F1060F15D17B6816
:101430001B8B43F008039AB27B681A837B689B7E00
:101440000133DAB27B689A767B689B7E002B04D1ED
:10145000FF220449064801F0EBFAFB6818461037F2
:10146000BD4680BD402B0100842A0100942A010062
:101470002C2B010080B584B000AF78600023FB60A6
:101480007B68002B05D14FF489721E491E4801F07C
:10149000CFFA7B68184601F077FF0346092B05D089
:1014A00040F213121749194801F0C2FA7B689B7E7B
:1014B000002B02D14FF0FF331FE07B689B7E013B86
:1014C000DAB27B689A767B689B7E002B01D0002382
:1014D00013E07B68DB6A002B04D07B68DB6A7868EA
:1014E0009847F860FB68002B03D0FB6813F1060FE8
:1014F00002D17B6800221A83FB6818461037BD466C
:1015000080BD00BF502B0100842A0100942A0100F5
:1015100090B585B000AFF860B9607A603B60FB6859
:10152000002B05D14FF4A0721849194801F080FA38
:10153000FB68184601F028FF0346092B05D040F24E
:1015400041121249134801F073FAFB689B7E002B8D
:1015500005D14FF0FF3000F0CBFE002311E0FB6817
:101560001B6B002B08D0FB681C6B3B687A68B96862
:10157000F868A047034604E06FF0050000F0B8FEED
:10158000002318461437BD4690BD00BF602B0100F4
:10159000842A0100942A010090B585B000AFF8605C
:1015A000B9607A603B60FB68002B05D140F26B129A
:1015B0001849194801F03CFAFB68184601F0E4FEAE
:1015C0000346092B05D04FF4B6721249134801F0B7
:1015D0002FFAFB689B7E002B05D14FF0FF3000F007
:1015E00087FE002311E0FB685B6B002B08D0FB68D3
:1015F0005C6B3B687A68B968F868A047034604E00A
:101600006FF0050000F074FE002318461437BD4645
:1016100090BD00BF702B0100842A0100942A0100B4
:1016200080B584B000AFF860B9607A60FB68002BC9
:1016300005D140F28F121149114801F0F9F9FB6808
:10164000184601F0A1FE0346092B05D04FF4C872DD
:101650000A490C4801F0ECF9FB689B6B002B07D0A2
:10166000FB689B6B7A68B968F8689847034601E0A5
:101670006FF0050318461037BD4680BD802B010072
:10168000842A0100942A010080B582B000AF7860FE
:1016900039607B68002B05D140F2AB120C490D4834
:1016A00001F0C6F97B68184601F06EFE0346092B6F
:1016B00005D04FF4D6720649074801F0B9F97B68A6
:1016C0003A68DA61002318460837BD4680BD00BF7E
:1016D000942B0100842A0100942A010080B483B075
:1016E00000AF786039607B681B683A685A607B6835
:1016F0001A683B681A607B683A681A603B687A68C7
:101700005A6000BF0C37BD465DF8047B704780B45B
:1017100083B000AF78607B681B687A6852685A6053
:101720007B685B687A6812681A607B687A685A60BE
:101730007B685A687B681A6000BF0C37BD465DF84D
:10174000047B704780B582B000AF78607B6814334B
:1017500019460348FFF7C2FF00BF0837BD4680BDEA
:10176000E400002090B583B000AF00237B600D4BF8
:101770003B603B681B683A689A420ED03B681B6826
:10178000143B7B6003F0E2F904467B68143318468F
:10179000FFF7BDFF204603F0DDF97B6818460C37E4
:1017A000BD4690BDE400002080B582B000AFFFF7D9
:1017B000D9FF78607B68002B1BD07B689B6F3B60F8
:1017C0003B68002B02D03B6878689847786801F046
:1017D000BDFD0346012B03D1786801F0DFFCE6E78D
:1017E0007B689B6A184601F0F1F8786801F070FD9B
:1017F000DDE700BF00BF0837BD4680BD80B584B0BF
:1018000000AF78600023FB600CE0094AFB6852F8E7
:101810002330BB60BB68002B01D0BB689847FB68D6
:101820000133FB60FB68032BEFD9FFF7BDFFE9E74E
:101830001C0A002080B588B004AF0023FB6024E0C0
:101840003B1DFA681549184600F038FFFB68DB01BC
:10185000134A9818FB681B02124A1344391D2022B0
:1018600003921F2202924FF4807201920093002390
:101870000D4A02F0AFF9FB68DB01094A1344184630
:1018800002F0ECF9FB680133FB60FB68002BD7D05A
:1018900000BF00BF1037BD4680BD00BFB02B0100A8
:1018A0009C0800201C090020FD17000080B483B0B4
:1018B00000AF78607B687A685A607B685A687B689A
:1018C0001A6000BF0C37BD465DF8047B704780B4DA
:1018D00083B000AF786039607B685B683A681A60F3
:1018E0007B685A683B685A607B683A685A603B6814
:1018F0007A681A6000BF0C37BD465DF8047B7047FC
:1019000080B483B000AF78607B681B687A689A42C5
:101910000CBF01230023DBB218460C37BD465DF82F
:10192000047B704780B582B000AF78607B68143369
:101930001846FFF7BBFF002318460837BD4680BD99
:1019400080B586B000AFF860B9601346FB71B86827
:1019500002F094FBFB79002B02D0012B07D031E081
:10196000BB6814331946F868FFF7B1FF31E0FB6834
:101970001B687B6117E07B69143B3B61BB6893F894
:1019800035203B6993F835309A4209D23B6903F11F
:101990001402BB68143319461046FFF798FF06E09F
:1019A0007B691B687B617A69FB689A42E3D17A693B
:1019B000FB689A420CD1BB6814331946F868FFF7EC
:1019C00086FF05E0A3220549054801F031F800E053
:1019D00000BF002318461837BD4680BDC030010047
:1019E000B82B010080B584B000AF78607B681B68BD
:1019F000143BFB60F86802F0A5FB00231846103783
:101A0000BD4680BD80B584B000AFF860B9607A6033
:101A1000FB70FB68002B05D14FF4967217491848EC
:101A200001F006F87B68B3F5803F05D340F22D1234
:101A30001249144800F0FCFFFB78002B08D0FB781B
:101A4000012B05D04FF497720C490F4800F0F0FFBE
:101A5000FB68BA680221184601F03AFBFB68184699
:101A6000FFF760FF7B689AB2FB689A83FB68FA789D
:101A70005A72002318461037BD4680BD98300100C9
:101A8000BC2B0100CC2B0100E02B010080B586B0FF
:101A900000AFF860B9601346FB71BB68B3F5803FD7
:101AA00005D340F289121F491F4800F0C1FFFB799E
:101AB000002B08D0FB79012B05D04FF4C5721949D2
:101AC0001A4800F0B5FF03F041F8786100F0FCFB24
:101AD0000346002B09D01349154800F069FE4FF466
:101AE000C6721049134800F0A3FF786903F032F87A
:101AF000F968022001F080FB38613B69002B01D1BD
:101B00003B690BE03B691846FFF70CFFBB689AB2D4
:101B10003B699A833B69FA795A723B6918461837D0
:101B2000BD4680BDA4300100CC2B0100E02B01009C
:101B3000942C0100B82B010090B587B000AF7860FD
:101B400039607B68002B05D140F2E51255495648B3
:101B500000F06EFF7B68184601F016FC0346022B6E
:101B600005D04FF4F3724F49504800F061FF504BDD
:101B70001B68002B04D04E4B1B687A6810469847B0
:101B800002F0E4FF04467B689B8B002B09D07B6846
:101B90009B8B013B9AB27B689A83204602F0DAFF66
:101BA00071E03B68002B05D1204602F0D3FF6FF0B7
:101BB000010372E002F0CAFF786101F0EBFE034618
:101BC000002B09D037493B4800F0F2FD40F20622D5
:101BD0003449394800F02CFF02F0B8FF386102F0B8
:101BE00031F80346002B09D12E49344800F0E0FDBE
:101BF00040F206222B49304800F01AFF02F0A6FFFF
:101C0000F86000F061FB0346002B09D025492C4801
:101C100000F0CEFD40F206222249274800F008FFDE
:101C2000F86802F097FF386902F094FF786902F0D3
:101C300091FF02F007F8B860BB6800221A637B6866
:101C400003F114007B685B7A1A46B968FFF778FEE7
:101C50003B68002B0BDDBB684C333A46002118462D
:101C600002F06AFDBB684C33184602F009FC2046BE
:101C700002F070FF01F0F2FCBB681B6B002B02D07E
:101C8000BB681B6B09E00F4B1B68002B04D00D4B8E
:101C90001B687A6810469847002318461C37BD46D3
:101CA00090BD00BFB4300100BC2B01001C2C010012
:101CB0007C0C0020F82C0100B82B0100242D010021
:101CC000942C0100800C0020B0B582B000AF786089
:101CD0007B68002B05D140F25F222649264800F0A0
:101CE000A7FE7B68184601F04FFB0346022B05D088
:101CF0004FF418721F49214800F09AFE204B1B68D0
:101D0000002B04D01E4B1B687A68104698470025AC
:101D100002F01CFF04467B6814331846FFF7F0FD01
:101D20000346002B06D17B6814331846FFF75AFE92
:101D3000012512E07B689B8B4FF6FF72934206D021
:101D40007B689B8B01339AB27B689A8305E02046BF
:101D500002F000FF6FF0020307E0204602F0FAFEF7
:101D6000012D01D101F07AFC002318460837BD4649
:101D7000B0BD00BFD4300100BC2B01001C2C010001
:101D8000840C002080B584B000AFF860B9601346C1
:101D9000FB71FB68002B05D140F2E6221049114887
:101DA00000F046FEFB68BA680321184601F090F97E
:101DB000FB681846FFF7B6FDFB6801229A83FB68B3
:101DC00000221A62FB68FF229A77FB680022DA770A
:101DD000FB6801225A72002318461037BD4680BDA9
:101DE000E43001005C2D010080B584B000AF786064
:101DF0000B46FB7002F0AAFEF86000F065FA03469D
:101E0000002B09D01749184800F0D2FC4FF44E724D
:101E10001449164800F00CFEF86802F09BFE796841
:101E2000032001F0E9F9B860BB68002B01D1BB6861
:101E300013E0BB681846FFF775FDBB6801229A8363
:101E4000BB6800221A62BB68FF229A77BB68002237
:101E5000DA77BB6801225A72BB6818461037BD4654
:101E600080BD00BFF4300100942C0100B82B0100AC
:101E700090B587B000AF7860396002F067FE786196
:101E800001F088FD0346002B09D07749774800F020
:101E90008FFC4FF465727449754800F0C9FD02F07B
:101EA00055FE386101F0CEFE0346002B09D16E4984
:101EB000704800F07DFC4FF465726B496C4800F08F
:101EC000B7FD02F043FEF86000F0FEF90346002B78
:101ED00009D06549684800F06BFC4FF465726249AF
:101EE000634800F0A5FDF86802F034FE386902F09E
:101EF00031FE786902F02EFE7B68002B05D140F29E
:101F0000973259495D4800F093FD7B68184601F00F
:101F10003BFA0346032B05D04FF4667252495848EA
:101F200000F086FD01F08EFEB86002F00FFE044660
:101F3000544B1B68002B04D0524B1B687A68104628
:101F40009847BB6800221A637B681B6ABA689A428A
:101F500010D17B68DB7FFF2B06D07B68DB7F0133F2
:101F6000DAB27B68DA776DE0204602F0F3FD6FF0BD
:101F7000020374E07B689B8B002B1ED07B689B8BDD
:101F8000013B9AB27B689A837B68BA681A62BB6825
:101F900093F835207B689A777B68DB7FFF2B06D030
:101FA0007B68DB7F0133DAB27B68DA774AE0204670
:101FB00002F0D0FD6FF0020351E03B68002B09D125
:101FC000BB686FF001021A63204602F0C3FD6FF098
:101FD000010344E0BB6893F835207B681B6A93F8E3
:101FE00035309A4207D27B68186ABB6835331A4687
:101FF000022101F0C5FF7B6803F114007B685B7A66
:102000001A46B968FFF79CFC3B68002B0BDDBB68E8
:102010004C333A460021184602F08EFBBB684C3325
:10202000184602F02DFA204602F094FD01F016FB4E
:10203000BB681B6B002B02D0BB681B6B0FE002F070
:1020400085FD0446204602F085FD0F4B1B68002BE2
:1020500004D00D4B1B687A68104698470023184639
:102060001C37BD4690BD00BF04310100F82C0100B3
:10207000B82B0100242D0100942C01005C2D0100DF
:10208000702D01007C0C0020800C002090B587B0E2
:1020900000AF78607B68002B05D140F24442634971
:1020A000634800F0C5FC7B68184601F06DF90346F3
:1020B000032B05D040F245425C495E4800F0B8FC75
:1020C00000237B6102F042FD386101F0BBFD034655
:1020D000002B09D15549584800F06AFB40F24A42AA
:1020E0005249564800F0A4FC02F030FDF86000F0C0
:1020F000EBF80346002B09D04C49514800F058FB3F
:1021000040F24A4249494D4800F092FCF86802F01A
:1021100021FD386902F01EFD01F094FDB86002F067
:1021200015FD0446474B1B68002B04D0454B1B682C
:102130007A68104698477B681B6ABA689A4209D049
:10214000BB684FF0FF321A63204602F003FD4FF0E8
:10215000FF3367E07B68DB7F013BDAB27B68DA77CD
:102160007B68DB7F002B54D17B689A7F7B681B6A7E
:1021700093F835309A4207D07B68186A7B681E3323
:102180001A46022101F0FCFE7B6814331846FFF763
:10219000B7FB0346002B23D17B685B69143BBB6014
:1021A0007B68BA681A62BB6893F835207B689A77B7
:1021B0007B68DB7FFF2B0DD07B68DB7F0133DAB2DE
:1021C0007B68DA777B6814331846FFF70BFC012332
:1021D0007B611EE0204602F0BDFC6FF0020321E0AF
:1021E0007B689B8B4FF6FF7293420CD07B689B8B76
:1021F00001339AB27B689A837B6800221A627B68FB
:10220000FF229A7705E0204602F0A4FC6FF002035B
:1022100008E0204602F09EFC7B69012B01D101F011
:102220001DFA002318461C37BD4690BD143101002D
:102230005C2D0100702D0100242D0100B82B010040
:10224000942C0100840C002080B582B000AF02F015
:102250007DFC78600A4B1B78DBB20133DAB2084BA5
:102260001A70084B1B68002B02D0064B1B6898475E
:10227000786802F06FFC00BF0837BD4680BD00BF24
:10228000340A00202C0A002080B582B000AF02F092
:102290005DFC78600A4B1B68002B02D0084B1B6862
:1022A0009847084B1B78DBB2013BDAB2054B1A703A
:1022B000786802F04FFC00BF0837BD4680BD00BF04
:1022C000300A0020340A002080B582B000AF02F04E
:1022D0003DFC7860054B1B78FB70786802F03AFC97
:1022E000FB7818460837BD4680BD00BF340A002081
:1022F00080B584B000AF7860FFF7E6FF0346002B9F
:1023000003D00A4A7B6813600CE001F09BFCF86084
:10231000FB68002B03D1054A7B68136002E0FB6871
:102320007A681A631037BD4680BD00BF380A0020A6
:1023300080B582B000AFFFF7C7FF0346002B01D086
:10234000074B09E001F07EFC78607B68002B02D02F
:102350007B68303300E0024B18460837BD4680BD2D
:10236000380A002080B489B000AFF860B9607A60A4
:10237000FB68FB61BB68DBB27B617B68032B40D9E8
:10238000FB6803F00303002B3BD1FB68BB617B6957
:102390001B027A6913433B613B691B043A6913438F
:1023A0003B6116E0BB691A1DBA613A691A60BB69E4
:1023B0001A1DBA613A691A60BB691A1DBA613A6995
:1023C0001A60BB691A1DBA613A691A607B68103BD2
:1023D0007B607B680F2BE5D807E0BB691A1DBA61EB
:1023E0003A691A607B68043B7B607B68032BF4D8F6
:1023F000BB69FB6105E0FB695A1CFA617A69D2B2DC
:102400001A707B685A1E7A60002BF4D1FB6818465C
:102410002437BD465DF8047B704780B48BB000AFB5
:10242000F860B9607A60FB687B62BB683B627B687E
:102430007B617B690F2B4DD93A6A7B6A134303F0AA
:102440000303002B46D17B6AFB613B6ABB6122E040
:10245000BA69131DBB61FB69191DF96112681A6025
:10246000BA69131DBB61FB69191DF96112681A6015
:10247000BA69131DBB61FB69191DF96112681A6005
:10248000BA69131DBB61FB69191DF96112681A60F5
:102490007B69103B7B617B690F2BD9D80AE0BA6955
:1024A000131DBB61FB69191DF96112681A607B6914
:1024B000043B7B617B69032BF1D8FB697B62BB69C1
:1024C0003B6207E03A6A531C3B627B6A591C7962A3
:1024D00012781A707B695A1E7A61002BF2D1FB6860
:1024E00018462C37BD465DF8047B704780B487B032
:1024F00000AFF860B9607A60FB687B61BB683B61E4
:102500003A697B699A4226D23A697B6813447A69B0
:102510009A4220D27A697B6813447B613A697B686E
:1025200013443B6109E03B69013B3B617B69013B33
:102530007B613B691A787B691A707B685A1E7A60E6
:10254000002BF0D10CE03A69531C3B617B69591CAC
:10255000796112781A707B685A1E7A60002BF2D16A
:10256000FB6818461C37BD465DF8047B704780B495
:1025700087B000AFF860B9607A607B68002B21D02B
:10258000FB687B61BB683B613A69531C3B617B69BB
:10259000591C796112781A701B78002B0CD104E059
:1025A0007B695A1C7A6100221A707B68013B7B6050
:1025B0007B68002BF4D105E07B68013B7B607B6886
:1025C000002BE1D1FB6818461C37BD465DF8047B43
:1025D000704790B484B000AFF860B9607A600024AE
:1025E00013E0FB681A78BB68591CB9601B78D31AD2
:1025F000DBB25CB2002C0BD1FB685A1CFA601B7872
:10260000002B05D07B68013B7B607B68002BE8D109
:10261000234618461037BD4690BC704780B485B03D
:1026200000AF78607B68FB6002E0FB680133FB6011
:10263000FB681B78002BF8D1FA687B68D31A184620
:102640001437BD465DF8047B7047FFFF80B582B04C
:1026500002AF0B4800F0ACF80A4800F0A9F80A4BAA
:1026600001930A4B0093002301220421084800F043
:102670009FF8084800F09CF800BFBD4680BD00BF31
:1026800028310100343101007C3101008831010022
:10269000583101009431010080B584B000AFF8607A
:1026A000B9607A607B68BA684FF0FF31F8680BF068
:1026B00097FA034618461037BD4680BD0EB480B564
:1026C00085B000AF786007F12003BB60BA68F96994
:1026D0007868FFF7E1FFF860FB6818461437BD46DD
:1026E000BDE8804003B0704780B400AF034B1B6867
:1026F0001846BD465DF8047B704700BF3C0A0020C9
:1027000080B584B000AF7860124B1B68FB607868BE
:10271000FEF71FFEB860BA68FB689A4201D1002339
:1027200013E0BB68002B0FD00A4B1B68002B04D0B2
:10273000084B1B681846FEF79DFE4321B868FEF75C
:1027400015FE044ABB681360FB6818461037BD4687
:1027500080BD00BF3C0A002080B483B000AF786029
:1027600000BF0C37BD465DF8047B704790B583B061
:1027700000AF78607B68002B13D00C4B1B68002BDC
:1027800003D17868FFF7E8FF0CE0084B1C68786815
:10279000FFF744FF03467A6800212046FEF7FCFE5F
:1027A00000E000BF0C37BD4690BD00BF3C0A0020D2
:1027B0000FB480B582B000AF07F114033B603B68F3
:1027C0003A6940F2FF1111480BF00AFA03467B60A8
:1027D0007B68B3F5007F02D340F2FF137B600C4BA4
:1027E0001B68002B03D10948FFF7B6FF06E0084B32
:1027F00018687B68054A0021FEF7CEFE7B68184604
:102800000837BD46BDE8804004B07047740A002018
:102810003C0A002080B500AF012203490348FFF7BE
:10282000B1FA00BF80BD00BFC8310100480A0020D6
:1028300080B500AF01F006FA0346002B06D04FF03A
:10284000FF310448FFF714FB034600E0002318465D
:1028500080BD00BF480A002080B582B000AF78601C
:102860007B68002B05D04FF4AC620849084800F0A3
:10287000DFF801F0E7F90346002B02D00548FFF727
:1028800005FC00BF0837BD4680BD00BF44320100D3
:10289000D0310100480A002080B485B000AFF86054
:1028A000B9607A60FB68002B04D00D4B1B68DA69B5
:1028B000FB681A60BB68002B04D0094B1B681A6ABE
:1028C000BB681A607B68002B04D0054B1B685A6AF2
:1028D0007B681A6000BF1437BD465DF8047B704703
:1028E0006C0A002080B584B000AF786039607B68E6
:1028F000033323F00303FB603B6823F00303BB6057
:10290000BA68FB689A4205D840F2B6520A490B48A9
:1029100000F08EF8BA68FB68D31A1A46796808483E
:1029200000F028F90346074A1360FFF773FF00BF62
:102930001037BD4680BD00BF30320100E0310100DC
:10294000C83101006C0A002080B584B000AF786007
:10295000FFF76EFFF8600C4B1B687968184600F0B3
:102960008BF9B860F868FFF777FF084B1B68002BFE
:1029700004D0064B1B687968B8689847BB6818464E
:102980001037BD4680BD00BF6C0A0020400A002001
:1029900080B584B000AF786039607B683A6802FB2C
:1029A00003F31846FFF7D0FFF860FB68002B08D050
:1029B0007B683A6802FB03F31A460021F868FFF7C8
:1029C000D1FCFB6818461037BD4680BD80B584B089
:1029D00000AF78600A4B1B68002B03D0084B1B68C4
:1029E00078689847FFF724FFF860786800F078FA75
:1029F000F868FFF731FF00BF1037BD4680BD00BF4C
:102A0000440A002080B586B000AFF860B9607A60F3
:102A1000FFF70EFF78617A68B968F868FFF73CFF46
:102A20007869FFF719FF00BF1837BD4680BDFFFF6B
:102A300080B586B000AFF860B9607A600023FB759E
:102A40000C4B1B68002B0BD17B68BA68F9680A48ED
:102A5000FFF7AEFE00BFFB7DDBB2002BFBD005E035
:102A6000044B1B687A68B968F868984700BF183744
:102A7000BD4680BD700A0020F831010080B584B0E9
:102A800000AF786039607B689B6A3A689A4204D2EA
:102A9000822235493548FFF7CBFF7B68DB6A3A680D
:102AA0009A4204D3832230493148FFF7C1FF7B6843
:102AB0009A6A3B685B681344FB603A68FB689A4219
:102AC00024D0FB681B6803F00103002B1ED17B6838
:102AD000DB6AFA689A4219D07B681B6BFA689A42E3
:102AE00002D17B683A681A63FB6800221A60FB68AF
:102AF0005A683B685A607B689B6A3A68D11A7B685F
:102B00009A6AFB685B6813440A469A607B689A6A13
:102B10003B689B681344BB60BA683B689A421FD00D
:102B2000BB681B6803F00103002B19D17B681B6B8A
:102B30003A689A4202D17B68BA681A633B680022FD
:102B40001A603B685A68BB685A607B689B6ABA68BF
:102B5000D11A7B689A6A3B685B6813440A469A609C
:102B600000BF1037BD4680BD7036010054320100F1
:102B70007832010080B58AB000AFF860B9607A6041
:102B8000BB68033323F003037B627B6A38333B6209
:102B90003B6A033323F00303FB61BA687B68134489
:102BA00023F00303BB61BB69182B53D9BB69183BE6
:102BB0003A6A9A424ED8BA69FB69D31A183B7B61CC
:102BC00038220021786AFFF7CDFB7B6AFA680C2176
:102BD000184600F07DFA7B6A254A5A617B6AFA69D9
:102BE0009A617B6A7A69DA617B6A7A695A63FA69FF
:102BF0007B6A9A627B6A9B6A3B617B6A23F0010273
:102C00003B691A607B6A5B6B03F10C023B695A609B
:102C10003B6900229A607B6A9A6A3B695B681A4446
:102C20007B6ADA627A6A7B6ADB6A42F001021A60C6
:102C30007B6A5A6B7B6ADB6A0C325A607B6A5A6B1E
:102C40007B6ADB6A0C329A607B6A9A6A7B6A1A63D7
:102C50007B6A08E0B968BA687B6813441A4605487D
:102C6000FFF7A6FD002318462837BD4680BD00BFEC
:102C7000A8320100B032010080B588B000AF7860A2
:102C800039603B68002B01D1002315E17B68002BE4
:102C900005D14FF490728A498A48FFF7C9FE7B68D4
:102CA000184600F071FB03460C2B05D040F22112B0
:102CB00083498548FFF7BCFE7B68184600F046FB59
:102CC0000346002B05D14FF491727D497F48FFF7F1
:102CD000AFFE7B68BB613B68033323F003033B60BB
:102CE000BB695B6B3A689A4201D90023E4E03B6818
:102CF0000B2B01D80C233B60BB691A6BBB699B6A29
:102D0000D31AFB61CFE0BB699A6AFB6913447B610C
:102D10007B691B6803F00103002B40F0BE807B69D8
:102D20005A68FB69D31A0C3B3A689A4200F2B580A4
:102D30007B695A68FB69D31AA3F10C023B6818330C
:102D40009A4239D3FA693B6813440C333B61BB693F
:102D50009A6A3B691344FB60BB6923F00102FB687C
:102D60001A607B695A68FB685A60FB68FA699A6066
:102D70007B693A695A60FB685A68BB695B6B0C33C4
:102D80009A4206D0BB699A6AFB685B6813443A6949
:102D90009A60BB691A6A3B68134403F10C02BB6971
:102DA0001A62BB695A6ABB691B6A9A421AD2BB692A
:102DB0001A6ABB695A6215E0BB691A6A7B695B686B
:102DC000B969896A7869411A5B1A1A44BB691A623F
:102DD000BB695A6ABB691B6A9A4203D2BB691A6A09
:102DE000BB695A62BB6943F001027B691A60BB6927
:102DF0001B6B7A699A4228D107E0BB699A6ABB6962
:102E00001B6B5B681A44BB691A63BB691B6B1B684D
:102E100003F00103002B05D0BB691A6BBB69DB6AA9
:102E20009A42EAD1BB691A6BBB69DB6A9A420CD041
:102E3000BB691B6B1B6803F00103002B05D040F23C
:102E400083121F492248FFF7F3FD7A693B68134458
:102E50000C33BA69D26A934205D940F285121849F7
:102E60001C48FFF7E5FD7B690C3303F00303002BDF
:102E700005D04FF4C37212491748FFF7D9FD7B699B
:102E800003F00303002B05D040F287120C491348CE
:102E9000FFF7CEFD7B690C330EE0BB699A6AFB69D4
:102EA00013445B68FB61BB695A6B3B68D31AFA69D0
:102EB0009A427FF628AF002318462037BD4680BDD2
:102EC0007C360100EC320100FC3201003833010095
:102ED00060330100B0330100003401004C340100C4
:102EE00080B584B000AF78607B68002B00F08380F1
:102EF0007B6803F00303002B05D04FF402724049B6
:102F00004048FFF795FD7B680C3BFB60FB681B6846
:102F100023F00103BB60BB68002B05D14FF40572A1
:102F200037493948FFF784FDFB681B6803F001034C
:102F3000002B05D140F2152231493448FFF778FDC6
:102F4000BB68184600F020FA03460C2B05D040F26F
:102F500016222B492E48FFF76BFDBB68184600F080
:102F6000F5F90346002B05D140F2172224492948E0
:102F7000FFF75EFDBB689B6A7A689A4204D3BB6820
:102F8000DB6A7A689A4205D34FF406721C492248DC
:102F9000FFF74EFDBB689A6AFB685B6813441B68C9
:102FA00023F001031A46BB68934205D040F21A226F
:102FB00013491A48FFF73CFDBB6823F00102FB6888
:102FC0001A60BB681B6BFA689A4202D2BB68FA6847
:102FD0001A63BB681A6ABB689B6AF968CB1A194600
:102FE000FB685B68CB1A1A44BB681A62F968B86858
:102FF000FFF744FD00E000BF1037BD4680BD00BFB5
:103000008C3601007C3401001C3501003435010090
:10301000443501008C350100C4350100383601000B
:1030200080B483B000AF786039607B681B683A6811
:103030005A607B681A683B681A607B683A681A6055
:103040003B687A685A6000BF0C37BD465DF8047B68
:10305000704780B483B000AF78607B681B687A6883
:1030600052685A607B685B687A6812681A607B688D
:103070007A685A607B685A687B681A6000BF0C37B0
:10308000BD465DF8047B704780B485B000AF034651
:10309000FB710023FB600FE00C4AFB681B0113442B
:1030A0001B78FA799A4204D1FB681B01074A134442
:1030B00006E0FB680133FB60FB68082BECDD0023B6
:1030C00018461437BD465DF8047B7047EC000020BD
:1030D00090B589B000AFF8600B467A60FB720023B0
:1030E000FB61FB7A1846FFF7CFFFB861BB69002B85
:1030F00005D14FF4AB7225492548FFF799FC00F044
:1031000009FCBB695B68FB6112E0FB690C3B7B61FE
:103110007B69002B09D07A69FB689A4205D14FF48C
:10312000B3721A491B48FFF783FCFB691B68FB61FC
:10313000BB690433FA699A42E7D100F001FCFB7ADB
:1031400063F07F03DAB2FB681A72FB6808227968C1
:103150001846FFF70CFA104B1B68002B03D00E4BE0
:103160001B68F868984701F0F1FC0446BB691A1D1A
:10317000FB680C3319461046FFF752FF204601F05A
:10318000E9FC00BF2437BD4690BD00BF30370100C9
:103190009C360100B4360100740C002090B583B059
:1031A00000AF78607B68002B05D140F293120F4985
:1031B0000F48FFF73DFC0F4B1B68002B03D00D4B56
:1031C0001B68786898477B6800221A7201F0BEFC81
:1031D00004467B680C331846FFF73BFF204601F09E
:1031E000B9FC00BF0C37BD4690BD00BF40370100A1
:1031F000C4360100780C002090B587B000AF0346BC
:103200003960FB7101F0A2FC7861FFF75DF80346BD
:10321000002B09D029492A48FFF7CAFA40F2B71211
:1032200026492848FFF704FC786901F093FCFB79F4
:103230001846FFF729FF38613B69002B05D140F2A2
:10324000BB121E492048FFF7F3FB3B69DB681846B9
:10325000FFF77AFBF860FB68002B01D1002329E01F
:103260003B69DB681A460021F868FFF77BF8FB68CA
:10327000FA791A72FB6800225A72FB6808223968D0
:103280001846FFF774F9114B1B68002B03D00F4B46
:103290001B68F868984701F059FC04463B691A1D01
:1032A000FB680C3319461046FFF7BAFE204601F0C2
:1032B00051FCFB6818461C37BD4690BD54370100D1
:1032C000D8360100003701009C360100740C002044
:1032D00090B583B000AF78607B68002B05D140F2D9
:1032E000F51216491648FFF7A3FB7B681B7A5BB201
:1032F000002B05DA4FF4FB7210491248FFF798FBD8
:10330000114B1B68002B03D00F4B1B687868984744
:103310007B6800221A7201F019FC04467B680C33AA
:103320001846FFF796FE204601F014FC7868FFF778
:103330004DFB00BF0C37BD4690BD00BF6837010094
:10334000C436010004370100780C002080B582B03B
:1033500000AF78607B68002B05D14FF406720849F6
:103360000848FFF765FB7B681B7A5BB2002B01DA2C
:10337000012300E0002318460837BD4680BD00BF8A
:103380007C370100C436010080B582B000AF7860A0
:103390007B68002B05D140F22B2206490648FFF737
:1033A00047FB7B681B7A03F07F03DBB218460837C4
:1033B000BD4680BD98370100C436010080B586B097
:1033C00000AF78600B46FB7000233B6100237B61FC
:1033D0000023FB60FB781846FFF756FEF8607B6819
:1033E000002B02D0FB68002B01D1002335E001F057
:1033F000ADFBB860FEF768FF0346002B09D0194902
:103400001948FFF7D5F940F2492216491748FFF746
:103410000FFBB86801F09EFB00F07CFAFB685B686C
:103420007B6112E07B690C3B3B613B690822796858
:103430001846FFF7CEF80346002B03D100F080FAC0
:103440003B690AE07B691B687B61FB6804337A692E
:103450009A42E7D100F074FA002318461837BD46A7
:1034600080BD00BFAC370100D83601000037010035
:1034700080B483B000AF78607B687A685A607B68FC
:103480005A687B681A6000BF0C37BD465DF8047B44
:10349000704780B483B000AF786039607B685B6848
:1034A0003A681A607B685A683B685A607B683A6879
:1034B0005A603B687A681A6000BF0C37BD465DF8F9
:1034C000047B704780B483B000AF78607B681B6872
:1034D0007A6852685A607B685B687A6812681A601A
:1034E0007B687A685A607B685A687B681A6000BF9C
:1034F0000C37BD465DF8047B704780B483B000AFE5
:1035000078607B681B687A689A420CBF01230023AD
:10351000DBB218460C37BD465DF8047B7047FFFFF1
:1035200080B584B000AF78607B68002B04D15F2247
:103530001C491D48FFF77CFA7B689B6A1B78232B8C
:1035400011D17B68DB691A467B689B6A9A420AD96B
:103550007B68DB691A467B689B6A19467B68DB6A75
:103560000B449A420CD97B6819461048FFF720F9A2
:1035700001F0ECFA0346FB60FB68002BFCD10DE088
:103580007B68DB691A467B689B6A20339A4205D8C0
:103590007B6819460648FFF70BF9FFE700BF1037B5
:1035A000BD4680BD24380100BC370100D037010082
:1035B000EC370100B0B582B000AF7860094B1B68F2
:1035C000184601F0C9FD0346013B1C46064B53F863
:1035D0003430A3F114057B681C602B46184608376D
:1035E000BD46B0BD880D0020880C002098B500AF06
:1035F000094B00221A80002406E0E300074A134426
:103600001846FFF735FF01341F2CF6DD044B00226E
:103610001A6000BF98BD00BF8C0D0020880C0020F0
:10362000880D002090B583B000AF3B1D1846FFF712
:10363000C1FF0446084B1C60204600F033F9032309
:1036400084F8343004F11C03184601F0CCFA00BFB2
:103650000C37BD4690BD00BF900D002080B586B0F0
:1036600000AF01F073FAF8605C4BB3F90030002B47
:1036700040F0AC805A4B1B68002B00F0A780002361
:103680003B613B1D1846FFF795FF7861554B1B6862
:1036900093F8343003F00703032B2CD1514B1B68F4
:1036A00093F835301A467B689A4203D24D4B1B681B
:1036B0007B6115E04B4B1B6893F835301A467B68ED
:1036C0009A420BD1474B1B6893F8343003F0080340
:1036D000002B03D1434B1B687B6101E001233B615D
:1036E000404B1B6893F834203E4B1B6822F00802C5
:1036F000D2B283F834203B4B1B687A699A4250D08F
:103700007B68DAB2384B1A70364B1B68BB60354A9F
:103710007B691360354B1B68002B04D0334B1B684F
:103720007969B86898473B69002B02D0B86800F007
:1037300063F8786900F0B6F87B6993F834305BB2CF
:1037400023F007035BB243F003035BB2DAB27B6999
:1037500083F834207869FFF7E3FE254B1B78DBB252
:10376000002B14D1234B1B68002B03D0214B1B686B
:10377000B8689847BB681C331A467B691C331946E6
:10378000104601F0EAF9F86801F0E4F922E0BB68BC
:103790001C331A467B691C331946104601F0DDF9CB
:1037A00014E0104B1B68184600F07CF80D4B1B68AA
:1037B00093F834305BB223F007035BB243F00303AA
:1037C0005AB2084B1B68D2B283F83420F86801F073
:1037D000C1F900BF1837BD4680BD00BF8C0D002069
:1037E000880D0020900D0020940D0020980D0020E1
:1037F000340A00209C0D002090B583B000AF7860A3
:103800007B68002B05D140F2D22221492148FFF7E5
:103810000FF901F09BF904461F4B1B687A689A4226
:103820000ED17B6893F834305BB223F007035BB2B0
:1038300043F003035BB2DAB27B6883F8342020E004
:103840007B6893F834305BB223F007035BB243F03C
:1038500001035BB2DAB27B6883F834207B6893F8AB
:103860003530DB000D4A1A447B6814331946104684
:10387000FFF70FFE7B689A6B094B1B681343084ADE
:103880001360204601F066F900BF0C37BD4690BDBD
:1038900040380100BC370100900D0020880C00204A
:1038A000880D002090B583B000AF78607B68002B56
:1038B00005D140F2333213491348FFF7B9F801F04C
:1038C00045F904467B6814331846FFF7FBFD7B6817
:1038D00093F83530DB000D4A13441846FFF70DFE10
:1038E0000346002B07D07B689B6BDA43084B1B68B1
:1038F0001340074A1360204601F02CF900BF0C3733
:10390000BD4690BD5C380100BC370100880C00202A
:10391000880D002098B500AF01F018F90446074B58
:10392000B3F900309BB201339BB21AB2034B1A8039
:10393000204601F00FF900BF98BD00BF8C0D00209C
:1039400098B500AF01F002F90446104BB3F900300E
:103950009BB2013B9BB21AB20C4B1A800B4BB3F9D2
:103960000030002B0CDC094B00221A80204601F0AD
:10397000F1F8074B1B68002B05D0FFF76FFE02E044
:10398000204601F0E7F800BF98BD00BF8C0D002075
:10399000900D002080B400AF044BB3F900309BB20F
:1039A0001846BD465DF8047B704700BF8C0D0020B3
:1039B00080B483B000AF78607B687A685A607B68B7
:1039C0005A687B681A6000BF0C37BD465DF8047BFF
:1039D000704780B483B000AF78607B681B687A68FA
:1039E00052685A607B685B687A6812681A607B6804
:1039F0007A685A607B685A687B681A6000BF0C3727
:103A0000BD465DF8047B704790B583B000AF00F011
:103A100019F9786001F09AF804467868FFF742FFD8
:103A20007B684C33184600F0E3FC7B68042283F883
:103A300034207868FDF786FE204601F08BF8FFF70A
:103A40000DFE00BF0C37BD4690BDFFFF90B585B0A1
:103A500000AF78607B68FB60FB68002B04D1872295
:103A600019491A48FEF7E4FFFB6893F8343003F075
:103A70000703022B04D0882213491548FEF7D8FF0C
:103A8000F868FFF781FC0346012B04D089220E4918
:103A90001048FEF7CDFF01F059F80446FB686FF0BF
:103AA00001021A63FB6814331846FFF792FFF868A7
:103AB000FFF7A2FE204601F04DF8FFF7CFFD00BF53
:103AC0001437BD4690BD00BF183A01007838010098
:103AD0008C380100C838010080B586B002AFF860AC
:103AE000B9607A603B60FB6814331846FFF760FFEB
:103AF000FB687A681A62FB683A685A62FB68BA69BE
:103B00009A62FB68FA69DA62FB68986AFB68DB6AAA
:103B10001A462321FEF726FCFB68186AFB68596ADF
:103B2000FB689A6AFB68DB6A043B1A44244B01F089
:103B3000ABF80246FB68DA6197F820301F2B04D9F6
:103B4000BE2220492048FEF773FFFB6897F820202B
:103B500083F83520FB6800229A63FB680022DA6351
:103B6000FB68002283F84020FB687A6A5A64FB688D
:103B70007A6A9A64FB6800221A63FB68002283F861
:103B80003420FB6800229A67FB680022DA67FB6832
:103B900003F14C00F9680023019300230093FB68B4
:103BA0000A4A00F0E7FB0A4B1B68002B03D0084BC6
:103BB0001B68F8689847002318461037BD4680BD3B
:103BC000093A0000283A01000C3901004D3A000082
:103BD000A80D002080B588B004AFF860B9607A60A5
:103BE0003B60FB68002B05D140F2311212491348AB
:103BF000FEF71EFFBB69002B05D14FF499720E49E9
:103C00000F48FEF715FFBA680121F868FFF760FA60
:103C10007B6A039397F820300293FB690193BB6999
:103C200000933B687A68B968F868FFF755FF034668
:103C300018461037BD4680BD383A0100783801007B
:103C40003039010080B400AF034B1B681846BD46F5
:103C50005DF8047B704700BF900D002080B582B0F6
:103C600000AF78607B68002B05D14FF4B2721C491D
:103C70001C48FEF7DDFE7B6893F8343003F0070341
:103C8000002B05D040F2651215491748FEF7D0FE0B
:103C90007868FFF779FB0346012B05D04FF4B37228
:103CA0000F491248FEF7C4FE7B6893F835301A4678
:103CB000012393401A467B689A637B68022283F84B
:103CC0003420786800F03EFAFFF7BCFF0346002B73
:103CD00001D0FFF7C3FC002318460837BD4680BD5E
:103CE000483A01007838010048390100C83801001D
:103CF00080B584B000AF78607B68002B05D140F2BE
:103D00008F1223492348FEF793FE7868FFF73CFBA8
:103D10000346012B05D04FF4C8721D491E48FEF71B
:103D200087FE7868FFF712FB0346002B05D140F2AF
:103D3000911217491948FEF77BFE7B6893F83430DF
:103D400003F00703042B01D100231CE07B6893F8E8
:103D5000343003F00703002B02D07868FFF7A2FD90
:103D600000F0F4FEF8607B684C33184600F040FB2E
:103D70007B68042283F834207868FDF7E3FCF86858
:103D800000F0E8FE002318461037BD4680BD00BF96
:103D90005C3A010078380100C83801008039010020
:103DA00080B58AB004AFF860B9607A603B60F968AA
:103DB0000120FFF721FA78617B69002B01D10023F4
:103DC0001BE03868FEF7C0FD38613B69002B04D169
:103DD0007869FFF77DFA00230FE07B6A039397F879
:103DE000203002933B6801933B6900937B68BA687B
:103DF000F9687869FFF770FE7B6918461837BD4689
:103E000080BDFFFF80B584B000AF78607B68002B79
:103E100005D14FF4FB7223492348FEF709FE786869
:103E2000FFF7B2FA0346012B05D040F2F7121D4905
:103E30001E48FEF7FDFD7868FFF788FA0346002B61
:103E400005D04FF4FC7217491948FEF7F1FD7B6865
:103E500093F8343003F00703042B01D100231CE056
:103E60007B6893F8343003F00703002B02D07868A6
:103E7000FFF718FD00F06AFEF8607B684C331846C7
:103E800000F0B6FA7B68042283F834207868FDF7E6
:103E900059FCF86800F05EFE002318461037BD4656
:103EA00080BD00BF703A010078380100C8380100B9
:103EB000B039010090B585B000AF7860FFF7C2FE61
:103EC000F860FB68002B05D140F23F221B491C48DB
:103ED000FEF7AEFDF868FFF757FA0346012B05D051
:103EE0004FF4107215491748FEF7A2FD00F02EFEA0
:103EF0000446FB6800221A63F86800F0BFF8FB680C
:103F00004C333A1D0021184600F016FCFB684C3378
:103F1000184600F0B5FA204600F01CFEFFF79EFBA5
:103F2000FB681B6B13F1020F02D1FB6800221A63BE
:103F3000FB681B6B18461437BD4690BD843A0100E0
:103F400078380100C838010080B582B000AF7860D1
:103F50007868FFF7AFFF034618460837BD4680BDB7
:103F600080B584B000AF78607868FDF7E7F8F86056
:103F7000F868FFF79FFF034618461037BD4680BD1F
:103F800090B587B000AFF860B9607A60FB68002B2D
:103F900005D140F2D52236493648FEF749FDF8688A
:103FA000FFF7F2F90346012B05D040F2D622304943
:103FB0003148FEF73DFDBB68022B09D0BB68022BE0
:103FC0004FDCBB68002B34D0BB68012B36D048E0F7
:103FD00000F0BCFD0446FB6893F8343003F007039F
:103FE000012B14D1F868FFF75DFC7B681A78FB6839
:103FF00083F83520FB6893F835301A460123934047
:104000001A46FB689A63F868FFF7F6FB0DE07B68D9
:104010001A78FB6883F83520FB6893F835301A4628
:10402000012393401A46FB689A63204600F092FDF4
:1040300018E0F868FFF712FE034614E0F868FFF78F
:1040400085F90346012B04D1F868FFF751FE78612A
:1040500003E0F868FFF7D6FE7861FFF7FFFA7B69A7
:1040600001E000BF002318461C37BD4690BD00BFCD
:10407000943A010078380100C838010090B583B047
:1040800000AF78607B68002B05D140F24B322849A5
:104090002848FEF7CDFC7868FFF776F90346012B38
:1040A00005D04FF4537222492348FEF7C1FCFFF7B5
:1040B000C9FD02467B68934205D040F24D321C494F
:1040C0001E48FEF7B5FC7B6893F8343003F0070414
:1040D000012C04D0032C02D04FF0FF3324E000F079
:1040E00035FD04467868FFF7DDFB7B6893F83430D4
:1040F0005BB223F007035BB243F002035BB2DAB2B8
:104100007B6883F834207B684C33184600F0CAFA89
:10411000204600F01FFD0A4B1B68002B03D0084B04
:104120001B6878689847002318460C37BD4690BD39
:10413000A83A010078380100C8380100FC390100B4
:10414000A00D002090B583B000AF78607B68002B95
:1041500005D140F279321D491D48FEF769FC7868A7
:10416000FFF712F90346012B05D040F27A321749C6
:104170001848FEF75DFC7B6893F8343003F00703C2
:10418000022B02D04FF0FF331BE000F0DFFC0446AF
:104190007B6814331846FFF71CFC7B684C331846C9
:1041A00000F080FA7868FFF727FB204600F0D2FC89
:1041B000094B1B68002B03D0074B1B687868984796
:1041C000002318460C37BD4690BD00BFBC3A010025
:1041D00078380100C8380100A40D002080B483B0F5
:1041E00000AF78607B687A685A607B685A687B6841
:1041F0001A6000BF0C37BD465DF8047B704780B481
:1042000083B000AF786039607B681B683A685A6099
:104210007B681A683B681A607B683A681A603B687A
:104220007A685A6000BF0C37BD465DF8047B704762
:1042300080B483B000AF78607B681B687A6852688E
:104240005A607B685B687A6812681A607B687A6873
:104250005A607B685A687B681A6000BF0C37BD469D
:104260005DF8047B704780B483B000AF78607B68F2
:104270001B687A689A420CBF01230023DBB2184600
:104280000C37BD465DF8047B704780B586B000AF43
:10429000F860B9607A603B60FB6897F820205A723A
:1042A000FB685B7A23F00103DAB2FB685A72FB68A1
:1042B000BA68DA61FB687A681A62FB6800229A625F
:1042C000FB683A685A6200237B610BE07B6902332A
:1042D000DB00FA68134404331846FFF77FFF7B695D
:1042E00001337B617B69002BF0DD00BF00BF183715
:1042F000BD4680BD90B585B000AF7860396000F0F4
:1043000025FC04467868FFF7AEFF0346002B0CD16E
:104310007B681B68143BFB60FB689A6A3B681A6009
:10432000204600F017FC002304E0204600F012FCB9
:104330004FF0FF3318461437BD4690BD80B584B0AA
:1043400000AF78600023FB600BE0FB680233DB000A
:104350007A68134404331846FFF76AFFFB68013399
:10436000FB60FB68002BF0DD00BF00BF1037BD46CF
:1043700080BDFFFF80B586B002AFF860B9607A609B
:104380003B60FB68002B05D140F20F121449154821
:10439000FEF74EFB7B68002B05D14FF48872104965
:1043A0001148FEF745FBBB696FF00042934205D30D
:1043B00040F211120A490D48FEF73AFBFB68BA6851
:1043C0000A211846FEF784FE3B7F0093BB693A68DA
:1043D0007968F868FFF759FF00BF1037BD4680BD08
:1043E000E03B0100D03A0100E43A0100F83A010054
:1043F00090B583B000AF78607B68002B05D14FF497
:1044000093721B491B48FEF713FB7B681846FEF7A7
:10441000BBFF03460A2B05D040F227121449164869
:10442000FEF706FB7B681846FEF790FF0346002B5D
:1044300005D14FF494720E491048FEF7F9FA00F0D6
:1044400085FB04467868FFF779FF7B685B7A23F089
:104450000103DAB27B685A72204600F07BFB7B686E
:104460001846FEF79BFE002318460C37BD4690BD4C
:10447000F03B0100D03A0100103B01004C3B010031
:10448000B0B588B000AF78607B68002B05D14FF4E1
:10449000CC727B497B48FEF7CBFA7B681846FEF767
:1044A00073FF03460A2B05D040F2991274497648EF
:1044B000FEF7BEFA002400F049FB05467868FFF7D6
:1044C0003DFF7B685B7A23F00103DAB27B685A72A6
:1044D0006E4B1B68002B04D06C4B1B687A6810462F
:1044E0009847FCF7E1FD02467B685B6A1A447B68EB
:1044F0009A627B685B7A03F00403002B02D0644B62
:10450000BB6101E0634BBB61BB69BB600023FB6126
:1045100055E0FB699B0007F12002134453F8183C57
:104520001B683B61FB69DB0014335B423A6913444F
:10453000FB60FB689A6A7B689B6A9A4209D0FB68B9
:104540009A6A7B689B6AD31A6FF0004293421FD32A
:1045500000E000BFFB699B0007F12002134453F801
:10456000183C1A68FB699B0007F120010B4443F8D3
:10457000182CFB699B0007F12002134453F8182CF8
:10458000FB69DB00B9690B445B689A42C1D100E06A
:1045900000BFFB69002B0FD0FB699B0007F12002D5
:1045A000134453F8182CFB69013308329B0007F1C0
:1045B00020010B4443F8182CFB690133FB61FB69B4
:1045C000002BD6D0344B1B680133334A1360324B77
:1045D0001B687B61BA687B68143319461046FFF785
:1045E0000EFE0223FB611EE07B6903F00303002B38
:1045F0001DD1FB69C3F101039B0007F120021344A5
:1046000053F8180CFB69C3F101030233DB007A682D
:10461000134404331946FFF7F2FD7B699B087B6165
:10462000FB690133FB61FB69012BDDD900E000BFB1
:104630007B685B7A43F00103DAB27B685A727B686D
:104640005B7A03F00403002B0ED0144B1B78012B74
:104650000AD1134B93F8343003F00703022B03D134
:104660000F48FFF76FFD0124284600F073FA002C75
:1046700001D0FEF7F3FF002318462037BD46B0BD3A
:10468000003C0100D03A0100103B0100800C0020EA
:10469000B40D0020AC0D0020441000207C0100204F
:1046A000BC0D002090B583B000AF78607B68002B14
:1046B00005D14FF404721C491C48FEF7B9F97B6818
:1046C0001846FEF761FE03460A2B05D040F2112280
:1046D00015491748FEF7ACF97B685B7A03F00103D4
:1046E000002B02D14FF0FF3319E0124B1B68002B57
:1046F00004D0104B1B687A681046984700F026FAE1
:1047000004467868FFF71AFE7B685B7A23F00103A2
:10471000DAB27B685A72204600F01CFA0023184671
:104720000C37BD4690BD00BF103C0100D03A0100DF
:10473000103B0100840C002090B585B000AFF860FC
:10474000B9607A60FB68002B05D14FF40D723449D3
:104750003448FEF76DF9FB681846FEF715FE034670
:104760000A2B05D040F235222D492F48FEF760F97B
:1047700000F0ECF90446BB68052B47D801A252F8BB
:1047800023F000BFA74700009D470000C947000075
:10479000D9470000E947000003480000FB685A6A57
:1047A0007B681A6033E07B681B686FF000429342BD
:1047B00005D340F23F221A491C48FEF739F97B68BD
:1047C0001A68FB685A6222E0FB685B7A23F00203F6
:1047D000DAB2FB685A721AE0FB685B7A43F00203B4
:1047E000DAB2FB685A7212E0FB685B7A03F00103ED
:1047F000002B03D07B6801221A6002E07B68002254
:104800001A60FB689A6A7B681A6000E000BF204665
:1048100000F0A0F9002318461437BD4690BD00BF34
:10482000203C0100D03A0100103B0100B03B0100E8
:1048300090B585B000AF3B461846FFF7CFFCFCF7BC
:1048400033FCF86000F082F904465FE0374B1B68E8
:10485000143BBB60BB689B6AFA68D31A6FF00042D6
:1048600093425AD2324B1B68002B03D0304B1B684B
:10487000B8689847B868FFF761FDBB685B7A03F0DA
:104880000203002B06D1BB685B7A23F00103DAB286
:10489000BB685A72BB6803F114023B4611461846C6
:1048A000FFF7ADFCBB68DB69BA68126A104698472F
:1048B000FCF7FAFBF8601F4B1B68002B03D01D4B65
:1048C0001B68B86898473B461846FFF7CCFC034680
:1048D000002B00D01AE0BB6814331846FFF7A8FC81
:1048E000BB685B7A03F00203002B0FD0BB685B7AD6
:1048F00003F00103002B09D0BB685B7A23F00103AE
:10490000DAB2BB685A72B868FFF7BAFD0748FFF71A
:10491000AAFC0346002B99D000E000BF204600F01F
:1049200019F900BF1437BD4690BD00BFAC0D002083
:104930003C1000204010002090B585B000AF3B46F1
:104940001846FFF74BFC00F001F904466BE03D4BC5
:104950001B68143BFB60FCF7A7FBB860FB689B6A15
:10496000BA68D31A6FF00042934263D2364B1B6889
:10497000002B03D0344B1B68F8689847F868FFF7A2
:10498000DDFCFB685B7A03F00203002B06D1FB68B9
:104990005B7A23F00103DAB2FB685A72FB6803F119
:1049A00014023B4611461846FFF729FC274B00220C
:1049B0001A70204600F0CEF8FB68DB69FA68126ACC
:1049C00010469847224B1B68002B03D0204B1B68D6
:1049D000F868984700F0BAF804461C4B01221A7098
:1049E0003B461846FFF73FFC0346002B00D01AE079
:1049F000FB6814331846FFF71BFCFB685B7A03F077
:104A00000203002B0FD0FB685B7A03F00103002B3D
:104A100009D0FB685B7A23F00103DAB2FB685A72B3
:104A2000F868FFF72DFD0748FFF71DFC0346002B34
:104A30008DD000E000BF204600F08CF800BF143796
:104A4000BD4690BDB40D00203C1000207C0100202C
:104A50004010002080B584B000AF786007F10803F3
:104A600019461248FFF746FC0346002B08D0FFF713
:104A7000E9F803461846FFF701FBFEF7EFFD11E0EA
:104A8000FCF712FBF860BA68FB68D31A6FF00042BB
:104A9000934207D2BA68FB68D31ABB60BB6818465A
:104AA000FFF752FAFFF748FFD8E700BFB40D002028
:104AB00080B582B000AF00237B6009E07B68DB003B
:104AC000074A13441846FFF789FB7B6801337B6074
:104AD0007B68002BF2D000BF00BF0837BD4680BD09
:104AE000AC0D002080B586B004AF00237B6009E0E8
:104AF0007B68DB00104A13441846FFF76FFB7B68A6
:104B000001337B607B68002BF2D00A2303930423DC
:104B100002934FF400730193084B00930023084A5B
:104B200008490948FFF756F80748FFF797F800BF0C
:104B30000837BD4680BD00BFB40D00203C0E0020EC
:104B4000554A0000D83B0100BC0D0020EFF3108057
:104B500072B6704780F310887047444A1368012B7F
:104B600004D04FF001031360414A1060414A1160C4
:104B700041484FF0805101607047EFF3108272B6E8
:104B80003A48016851B34FF00001016038480168AC
:104B900091B1EFF309811EF0100F08BF21ED108BCA
:104BA00021E9F00F4FF000041EF0100F08BF0124A0
:104BB00041F8044D006801602E490968096808C978
:104BC000B1E8F00F002B18BFB1EC108B81F309880E
:104BD0004EF0100E002B18BF2EF0100E82F310882E
:104BE0004EF0040E704723490860EFF3148222F060
:104BF000040282F314881E494FF0000008601B492C
:104C00004FF0010008601D481D49D0F8002041EA1E
:104C10000201016018484FF0805101601948006896
:104C2000006800BF80F3088861B662B6704700BFB5
:104C3000EFF308801EF0040F01D0EFF3098020E9A4
:104C4000F00F40F804ED40F804ED1EF0040F02D020
:104C500080F3098801E080F3088800B500F0BAF914
:104C60005DF804EB4EF0040E704700005010002079
:104C7000481000204C10002004ED00E020ED00E082
:104C80000000FFFF08ED00E080B489B000AFF860DD
:104C9000B9607A603B607B680433BB61BB6923F019
:104CA0000703BB61BB69443BBB61BB697B610023FC
:104CB000FB6108E0FB699B007A691344154A1A609E
:104CC000FB690133FB61FB69102BF3D9BA687B697F
:104CD0005A627B6900229A627B690022DA627B69F0
:104CE00000221A637B6900225A633A687B699A63DF
:104CF000FA687B69DA637B694FF080721A647B69BA
:104D000000221A60BB6918462437BD465DF8047B53
:104D1000704700BFEFBEADDE80B500AF2548FDF7A0
:104D200047FD254B1B889BB219462448FDF740FDE3
:104D3000214B1B889BB203F00103002B02D02048BB
:104D4000FDF736FD1C4B1B889BB203F00203002BC2
:104D500002D01C48FDF72CFD174B1B889BB203F0BB
:104D60000403002B02D01848FDF722FD124B1B88CC
:104D70009BB203F00803002B02D01448FDF718FD86
:104D80000D4B1B889BB203F48073002B02D010489C
:104D9000FDF70EFD084B1B889BB203F40073002B3C
:104DA00002D00C48FDF704FD0B48FDF701FD00BFE4
:104DB00080BD00BF343C01002AED00E0443C01000E
:104DC0005C3C0100683C0100743C01007C3C01003B
:104DD000843C0100903C01009C3C010080B500AF88
:104DE0002648FDF7E5FC264B1B78DBB21946254823
:104DF000FDF7DEFC224B1B78DBB203F00103002B36
:104E000002D02148FDF7D4FC1D4B1B78DBB203F028
:104E10000203002B02D01D48FDF7CAFC184B1B787B
:104E2000DBB203F00403002B02D01948FDF7C0FCED
:104E3000134B1B78DBB203F00803002B02D015489C
:104E4000FDF7B6FC0E4B1B78DBB203F01003002B12
:104E500002D01148FDF7ACFC094B1B78DBB25BB20A
:104E6000002B06DA0D4B1B6819460D48FDF7A0FC18
:104E700002E00C48FDF79CFC00BF80BDA03C010097
:104E800029ED00E0AC3C0100C43C0100D03C010035
:104E9000DC3C0100EC3C0100F83C010038ED00E096
:104EA000003D01009C3C010080B500AF2148FDF7AA
:104EB0007FFC214B1B78DBB219462048FDF778FCBC
:104EC0001D4B1B78DBB203F00103002B02D01C4802
:104ED000FDF76EFC184B1B78DBB203F00203002BCE
:104EE00002D01848FDF764FC134B1B78DBB203F0CB
:104EF0000803002B02D01448FDF75AFC0E4B1B7818
:104F0000DBB203F01003002B02D01048FDF750FC79
:104F1000094B1B78DBB25BB2002B06DA0C4B1B682B
:104F200019460C48FDF744FC02E00B48FDF740FC35
:104F300000BF80BD103D010028ED00E0243D0100D0
:104F40003C3D0100483D0100543D0100603D010031
:104F500034ED00E06C3D01009C3C010080B500AFE9
:104F6000164B1B6803F00203002B02D01448FDF718
:104F70001FFC124B1B6803F08043002B14D0114B15
:104F80001B78DBB2002B01D0FFF728FF0E4B1B78FC
:104F9000DBB2002B01D0FFF787FF0C4B1B889BB2C5
:104FA000002B01D0FFF7B8FE044B1B68002B02DA80
:104FB0000748FDF7FDFB00BF80BD00BF2CED00E002
:104FC0007C3D010029ED00E028ED00E02AED00E045
:104FD000943D010080B586B000AF78607B682833CF
:104FE0007B617B6804333B61474B1B68002B07D018
:104FF000454B1B6878699847F860FB68002B7ED0AA
:105000003B691B6C19464148FDF7D2FB3B695B6A63
:1050100019463F48FDF7CCFB3B699B6A19463D4862
:10502000FDF7C6FB3B69DB6A19463B48FDF7C0FB51
:105030003B691B6B19463948FDF7BAFB3B695B6856
:1050400019463748FDF7B4FB3B699B68194635485C
:10505000FDF7AEFB3B69DB6819463348FDF7A8FB5B
:105060003B691B6919463148FDF7A2FB3B695B6947
:1050700019462F48FDF79CFB3B699B6919462D4853
:10508000FDF796FB3B69DB6919462B48FDF790FB62
:105090003B691B6A19462948FDF78AFB3B695B6B34
:1050A00019462748FDF784FB3B699B6B1946254849
:1050B000FDF77EFB3B69DB6B19462348FDF778FB68
:1050C0007B681B6803F00403002B09D0FEF7BAFDD0
:1050D000034619461D48FDF76BFB00F0D7FD02E0C3
:1050E0001B48FDF765FB7B681B6803F01003002B72
:1050F00002D11848FDF75CFBFFF730FFFEE700BF69
:105100001837BD4680BD00BF54100020A43D0100EB
:10511000B43D0100C43D0100D43D0100E43D010067
:10512000F43D0100043E0100143E0100243E010054
:10513000343E0100443E0100543E0100643E010043
:10514000743E0100843E0100943E0100A43E010033
:10515000C43E0100E03E010080B483B000AF78603F
:105160007B6893FAA3F3B3FA83F37A68002A01D138
:105170004FF0FF33013318460C37BD465DF8047B12
:10518000704780B586B000AFF860B9607A603B6068
:10519000FDF7AAFA78617B69002B03D1386AFDF725
:1051A000DBFA12E07B691B8B7B827B691B8B43F0F4
:1051B00040039AB27B691A837B6A3A6A0021786954
:1051C000FCF7EAF97B697A8A1A8300BF1837BD4673
:1051D00080BDFFFF80B500AF00F040FC054B064AE4
:1051E0005A6101220549034800F0D8FB0023184604
:1051F00080BD00BF5810002083510000043F010013
:1052000080B483B000AF78607B6800221A6000BF72
:105210000C37BD465DF8047B704780B485B000AFA5
:10522000786039607B68FB6002E0FB681B68FB60AC
:10523000FB681B68002BF8D1FB683A681A603B6872
:1052400000221A6000BF1437BD465DF8047B70472A
:1052500080B483B000AF78607B681B6818460C3759
:10526000BD465DF8047B704780B483B000AF7860C2
:105270007B681B6818460C37BD465DF8047B704799
:1052800080B586B000AFF860B9607A607B687B61FA
:10529000BB68002B04D1922213491448FDF7C8FBC8
:1052A0007B68002B13D193220F491148FDF7C0FBF7
:1052B0000DE0FB685A1CFA60B3F5007F0CD27A68E7
:1052C000531C7B60BB68591CB96012781A707B68EC
:1052D0001B78002BEDD100E000BF7A687B69D31A00
:1052E00018461837BD4680BD70400100303F0100B0
:1052F000343F010080B487B000AF7860396000238C
:105300007B6100233B610023FB603968244BA3FBD6
:105310000123DA0813469B0013445B00CA1AD2B279
:10532000FB68591CF96079680B443032D2B21A70AC
:105330003B681B4AA2FB0323DB083B603B68002B56
:10534000E3D17A68FB68134400221A7000237B6162
:10535000FB68013B3B6117E07A687B6913441B786B
:10536000FB727A683B691A4479687B690B4412784E
:105370001A707A683B691344FA7A1A707B690133B0
:105380007B613B69013B3B617A693B699A42E3D3AC
:10539000FB6818461C37BD465DF8047B704700BFAC
:1053A000CDCCCCCC80B500AF094B5B68002B0DD0C9
:1053B000FCF78AFF0346002B09D1FEF743FC0346A6
:1053C000002B04D00348FCF761FE00E000BF80BD65
:1053D000801000208810002080B500AF0A4B5B6869
:1053E000002B0FD0FCF770FF0346002B0BD1FEF70C
:1053F00029FC0346002B06D04FF0FF310348FCF791
:1054000037FD00E000BF80BD801000208810002024
:1054100080B500AFFCF758FF0346002B01D1044BC9
:1054200003E00448FDF7C4F90023184680BD00BF1F
:10543000B0100020383F010090B585B000AFF86093
:10544000B9607A603B60FB68002B05D14FF4807235
:1054500079497A48FDF7ECFABB68072B05D940F289
:10546000011275497648FDF7E3FA7B68002B05D1F8
:105470004FF4817270497348FDF7DAFA3B6A002BEA
:1054800005D140F203126C496F48FDF7D1FA6F4B1A
:1054900000221A606E48FDF7C1F803466D4A13609A
:1054A0006D4ABB6852F82330002B22D0674B186836
:1054B000664B1B68FA681344684A1946FFF7E0FE1A
:1054C0000246624B1B681344604A13605F4B1868C6
:1054D0005E4B1B68FA68D1185F4ABB6852F82330EC
:1054E0001A46FFF7CDFE0246584B1B681344574A35
:1054F0001360564B1B68FA68134400221A70534B12
:105500001B68FA6813445B221A70504B1B68013306
:10551000FA68D418FBF7C8FD034619462046FFF782
:10552000E9FE03464E4A1360484B1A684C4B1B6811
:1055300013440133FA6813445D221A70434B1A680E
:10554000474B1B6813440233FA68134400221A7055
:105550003E4B1B68FA6813441846FDF75FF8024695
:105560003A4B1B681344394A1360384B1868374B61
:105570001B68FA6813443B4A1946FFF781FE02464E
:10558000324B1B681344314A1360304B18682F4B61
:105590001B68FA68D118344ABB6852F823301A469F
:1055A000FFF76EFE0246294B1B681344274A13601F
:1055B000264B1868254B1B68FA6813447A6819460D
:1055C000FFF75EFE0246214B1B6813441F4A13601F
:1055D0001E4B18681D4B1B68FA681344234A194672
:1055E000FFF74EFE0246194B1B681344174A13601F
:1055F000164B1B68FA68D018144B1B68C3F5007172
:105600007B6A3A6A08F0ECFA0346194A13600F4BBA
:105610001B68174A12681344B3F5007F2AD8144B4D
:105620001B68002B26DB094B1B68114A12681344C8
:10563000064A136022E000BF7C4001008C3F01005D
:10564000943F0100AC3F0100B03F0100B4120020C4
:10565000B83F0100B812002050400100BC3F0100DB
:10566000BC120020C03F010030400100C43F0100D7
:10567000C0120020254B4FF400721A60234B1A68A9
:10568000234B1B6813440433B3F5007F0FD91F4B22
:105690004FF400721A601D4B1B68043B1B4A1360D9
:1056A0001A4B1A681A4B1B68D31A184A13603B68C6
:1056B000002B0FD0154B1868144B1B68FA68134465
:1056C000144A1946FFF7DCFD0246104B1B681344D1
:1056D0000E4A1360104ABB6852F82330002B0FD0DB
:1056E0000A4B1868094B1B68FA6813440B4A1946A1
:1056F000FFF7C6FD0246054B1B681344034A1360BF
:10570000024B1B6818461437BD4690BDB4120020EA
:10571000B8120020B83F010050400100C83F01000E
:1057200090B58DB002AFF860B9607A603B60414BD4
:105730001B68002B79D04048FFF78AFD0346002BF9
:1057400003D13868FDF712F870E03B48FFF780FDA1
:10575000786266E07B6A243B7B617B69DB68FA6880
:105760009A4257D87B691B6A002B0DD07B691C6A53
:10577000BB6B01933B6800937B68BA68F9687869F2
:10578000A0470346002B47D07B699B68002B02D1C2
:105790007B68002B0BD07B695C69BB6B01933B681A
:1057A00000937B68BA68F9687869A04735E0002300
:1057B0003B62BB6BFB613B68BB61204AFB6852F8F4
:1057C0002330002B07D01D4AFB6852F823301846BF
:1057D000FCF724FF38623B6A002B0FD01848FCF717
:1057E0001DFF02463B6A13443B61BA693B6913449F
:1057F000BB61FA693B69D31A043BFB617B695C6955
:10580000FB690193BB6900937B68BA68F9687869A2
:10581000A04702E000BF00E000BF786AFFF724FD68
:1058200078627B6A002B95D100E000BF2C37BD4623
:1058300090BD00BF80100020AC100020504001003F
:10584000BC3F010080B586B002AFF860B9607A60F5
:105850003B60FCF739FD0346002B08D1BB69009380
:105860003B687A68B968F868FFF75AFF09E0BB69D6
:1058700001933B6800937B68BA68F9680020FFF7E2
:1058800080FC00BF1037BD4680BDFFFF80B588B0EB
:1058900002AFF860B9607A603B6000237B6100234F
:1058A0003B61BB68002B05D140F22D2227492848D7
:1058B000FDF7BEF83B68002B05D140F22E222349AC
:1058C0002448FDF7B5F8FB68072B05D94FF40C7297
:1058D0001E492148FDF7ACF8204B1B68002B31D046
:1058E000FFF796FD7861FFF777FD1D4B1B68012BD5
:1058F0000CD1396A3868FCF75BFF7B68012B02D159
:105900001848FCF755FFFFF74DFD1CE0144B012232
:105910001A603B6A01933B6800937B68BA68F96838
:105920007869FFF789FD38613B6900937B69002244
:10593000B968F868FFF786FF094B00221A60FFF785
:1059400031FD00E000BF1837BD4680BD8C4001002E
:10595000AC3F0100B03F0100943F010080100020E7
:10596000C4120020B83F010008B480B589B002AF6E
:10597000F860B9607A6007F128037B617B69009366
:105980007B6A7A68B968F868FFF780FF00BF1C3748
:10599000BD46BDE8804001B07047FFFF80B586B0CE
:1059A00000AFF860B9607A60FB68002B05D140F267
:1059B0000B5223492348FDF73BF8BB68002B05D168
:1059C00040F20C521E492048FDF732F81F4B1B686D
:1059D000002B05D140F20D5219491D48FDF728F85A
:1059E000FB685B69002B05D140F20E52144919483F
:1059F000FDF71EF8FB681B69002B03D0FB681B69D1
:105A0000F8689847FB687A689A60FB680722DA6052
:105A1000FB680822B9681846FCF7A9FDFFF796F85D
:105A20007861FB68243319460B48FFF7F6FB786969
:105A3000FFF790F8002318461837BD4680BD00BF19
:105A40009C4001000840010010400100801000202F
:105A5000D03F010018400100AC10002080B500AF1D
:105A60000B4B1B68002B01D000230EE001220949DB
:105A70000948FCF787F9064B01225A600748FFF7EF
:105A8000BFFB034B01221A600023184680BD00BFF4
:105A9000801000202840010088100020AC10002059
:105AA00080B586B000AFF860B9607A607968B86890
:105AB000FCF76EFF78617B69002B02D1FB680C223A
:105AC0001A607B6918461837BD4680BD80B500AFA7
:105AD000FCF72EFC0346184680BD80B483B000AFAF
